S01900004C45442053657175656E63652056312E302E73726563D8
S11300000C942A000C943F000C943F000C943F0085
S11300100C943F000C943F000C943F000C943F0060
S11300200C943F000C943F000C943F000C943F0050
S11300300C943F000C943F000C943F000C943F0040
S11300400C943F000C943F000C943F000C943F0030
S11300500C943F0011241FBECFE5D8E0DEBFCDBF16
S113006010E0A0E6B0E0EEE3F6E002C005900D92E9
S1130070A036B107D9F70E946D000C941D030C94AF
S11300800000883228F462E00E941D0180E0089597
S113009081E00895883220F40E94D10280E008951E
S11300A081E00895883228F460E00E941D0180E018
S11300B0089581E00895883228F461E00E943302B3
S11300C080E0089581E00895883228F460E00E9479
S11300D0330280E0089581E00895CF93DF931F9267
S11300E0CDB7DEB780E00E94520081E00E9452004A
S11300F082E00E94520083E00E94520081E10E944B
S11301004100198210E000E00F2EF7E0CF2EF02D11
S11301100F2EF6E0DF2EF02D0F2EF5E0EF2EF02D52
S11301206894FF24F2F8BE016F5F7F4F81E10E9463
S11301304A0089818111F7CF11110EC0802F0E94CE
S11301405B002FE58AEE90E0215080409040E1F77B
S113015000C0000011E0E7CF113071F481E00E948B
S11301605B002FE58AEE90E0215080409040E1F75B
S113017000C0000012E0D7CF123071F482E00E9478
S11301805B002FE58AEE90E0215080409040E1F73B
S113019000C0000013E0C7CF133071F483E00E9465
S11301A05B002FE58AEE90E0215080409040E1F71B
S11301B000C000001F2DB7CF143071F4802F0E94AF
S11301C064002FE58AEE90E0215080409040E1F7F2
S11301D000C000001E2DA7CF153071F481E00E94ED
S11301E064002FE58AEE90E0215080409040E1F7D2
S11301F000C000001D2D97CF163071F482E00E94DC
S113020064002FE58AEE90E0215080409040E1F7B1
S113021000C000001C2D87CF173009F084CF83E085
S11302200E9464002FE58AEE90E0215080409040C7
S1130230E1F700C00000102F76CF982F9695969581
S11302409695953008F005C18770613031F008F457
S1130250ACC0623009F455C0FEC09130C9F028F03A
S1130260923049F19330D1F1F8C04AB321E030E043
S1130270B90102C0660F771F8A95E2F7CB0180951A
S1130280942F98239ABB9BB389238BBB80E008955A
S113029047B321E030E0B90102C0660F771F8A95A9
S11302A0E2F7CB018095942F982397BB98B38923C9
S11302B088BB80E0089544B321E030E0B90102C076
S11302C0660F771F8A95E2F7CB018095942F9823C8
S11302D094BB95B3892385BB80E0089541B321E0A5
S11302E030E0B90102C0660F771F8A95E2F7CB01AF
S11302F08095942F982391BB92B3892382BB80E08D
S113030008959130C9F028F0923049F19330D1F139
S1130310A6C04AB321E030E0B90102C0660F771FDE
S11303208A95E2F7CB01962F909594239ABB9BB3C1
S1130330892B8BBB80E0089547B321E030E0B901FD
S113034002C0660F771F8A95E2F7CB01962F90952E
S1130350942397BB98B3892B88BB80E0089544B35A
S113036021E030E0B90102C0660F771F8A95E2F7F9
S1130370CB01962F9095942394BB95B3892B85BB81
S113038080E0089541B321E030E0B90102C0660F76
S1130390771F8A95E2F7CB01962F9095942391BB12
S11303A092B3892B82BB80E008959130C9F028F084
S11303B0923049F19330D1F154C04BB321E030E095
S11303C0B90102C0660F771F8A95E2F7CB01962F19
S11303D0909594239BBB9AB3892B8ABB80E00895A4
S11303E048B321E030E0B90102C0660F771F8A9557
S11303F0E2F7CB01962F9095942398BB97B3892B62
S113040087BB80E0089545B321E030E0B90102C024
S1130410660F771F8A95E2F7CB01962F9095942368
S113042095BB94B3892B84BB80E0089542B321E04B
S113043030E0B90102C0660F771F8A95E2F7CB015D
S1130440962F9095942392BB91B3892B81BB80E026
S1130450089582E0089580E0089582E0089582E09E
S1130460089582E00895982F9695969596959530DF
S113047008F08DC0623008F08CC08770613009F0DC
S113048040C09130A1F028F09230F9F0933059F146
S113049082C04BB321E030E0B90102C0660F771F80
S11304A08A95E2F7CB01842B8BBB80E0089548B397
S11304B021E030E0B90102C0660F771F8A95E2F7A8
S11304C0CB01842B88BB80E0089545B321E030E064
S11304D0B90102C0660F771F8A95E2F7CB01842B1E
S11304E085BB80E0089542B321E030E0B90102C049
S11304F0660F771F8A95E2F7CB01842B82BB80E0DD
S1130500089561114AC09130A9F028F0923009F1A0
S1130510933071F144C04BB321E030E0B90102C023
S1130520660F771F8A95E2F7CB01809584238BBBF6
S113053080E0089548B321E030E0B90102C0660FBD
S1130540771F8A95E2F7CB018095842388BB80E0EE
S1130550089545B321E030E0B90102C0660F771F6A
S11305608A95E2F7CB018095842385BB80E00895CA
S113057042B321E030E0B90102C0660F771F8A95CB
S1130580E2F7CB018095842382BB80E0089582E06A
S1130590089583E0089582E0089580E0089582E05C
S11305A00895982F969596959695953008F041C0A4
S11305B087709130A1F028F09230F9F0933059F11E
S11305C03AC029B330E0A90102C0559547958A95F0
S11305D0E2F7CA018170FB01808380E0089526B3AD
S11305E030E0A90102C0559547958A95E2F7CA0102
S11305F08170FB01808380E0089523B330E0A9017A
S113060002C0559547958A95E2F7CA018170FB01AE
S1130610808380E0089520B330E0A90102C055959D
S113062047958A95E2F7CA018170FB01808380E0D7
S1110630089582E0089582E00895F894FFCFC3
S9030000FC
